{
  "_format": "hh-sol-artifact-1",
  "contractName": "DegenToken",
  "sourceName": "contracts/DegenToken.sol",
  "abi": [
    {
      "inputs": [],
      "stateMutability": "nonpayable",
      "type": "constructor"
    },
    {
      "anonymous": false,
      "inputs": [
        {
          "indexed": true,
          "internalType": "address",
          "name": "owner",
          "type": "address"
        },
        {
          "indexed": true,
          "internalType": "address",
          "name": "spender",
          "type": "address"
        },
        {
          "indexed": false,
          "internalType": "uint256",
          "name": "value",
          "type": "uint256"
        }
      ],
      "name": "Approval",
      "type": "event"
    },
    {
      "anonymous": false,
      "inputs": [
        {
          "indexed": true,
          "internalType": "address",
          "name": "previousOwner",
          "type": "address"
        },
        {
          "indexed": true,
          "internalType": "address",
          "name": "newOwner",
          "type": "address"
        }
      ],
      "name": "OwnershipTransferred",
      "type": "event"
    },
    {
      "anonymous": false,
      "inputs": [
        {
          "indexed": true,
          "internalType": "address",
          "name": "from",
          "type": "address"
        },
        {
          "indexed": true,
          "internalType": "address",
          "name": "to",
          "type": "address"
        },
        {
          "indexed": false,
          "internalType": "uint256",
          "name": "value",
          "type": "uint256"
        }
      ],
      "name": "Transfer",
      "type": "event"
    },
    {
      "inputs": [
        {
          "internalType": "address",
          "name": "owner",
          "type": "address"
        },
        {
          "internalType": "address",
          "name": "spender",
          "type": "address"
        }
      ],
      "name": "allowance",
      "outputs": [
        {
          "internalType": "uint256",
          "name": "",
          "type": "uint256"
        }
      ],
      "stateMutability": "view",
      "type": "function"
    },
    {
      "inputs": [
        {
          "internalType": "address",
          "name": "spender",
          "type": "address"
        },
        {
          "internalType": "uint256",
          "name": "amount",
          "type": "uint256"
        }
      ],
      "name": "approve",
      "outputs": [
        {
          "internalType": "bool",
          "name": "",
          "type": "bool"
        }
      ],
      "stateMutability": "nonpayable",
      "type": "function"
    },
    {
      "inputs": [
        {
          "internalType": "address",
          "name": "account",
          "type": "address"
        }
      ],
      "name": "balanceOf",
      "outputs": [
        {
          "internalType": "uint256",
          "name": "",
          "type": "uint256"
        }
      ],
      "stateMutability": "view",
      "type": "function"
    },
    {
      "inputs": [
        {
          "internalType": "uint256",
          "name": "amount",
          "type": "uint256"
        }
      ],
      "name": "burn",
      "outputs": [],
      "stateMutability": "nonpayable",
      "type": "function"
    },
    {
      "inputs": [
        {
          "internalType": "address",
          "name": "account",
          "type": "address"
        }
      ],
      "name": "checkBalance",
      "outputs": [
        {
          "internalType": "uint256",
          "name": "",
          "type": "uint256"
        }
      ],
      "stateMutability": "view",
      "type": "function"
    },
    {
      "inputs": [],
      "name": "decimals",
      "outputs": [
        {
          "internalType": "uint8",
          "name": "",
          "type": "uint8"
        }
      ],
      "stateMutability": "view",
      "type": "function"
    },
    {
      "inputs": [
        {
          "internalType": "address",
          "name": "spender",
          "type": "address"
        },
        {
          "internalType": "uint256",
          "name": "subtractedValue",
          "type": "uint256"
        }
      ],
      "name": "decreaseAllowance",
      "outputs": [
        {
          "internalType": "bool",
          "name": "",
          "type": "bool"
        }
      ],
      "stateMutability": "nonpayable",
      "type": "function"
    },
    {
      "inputs": [],
      "name": "getItemNames",
      "outputs": [
        {
          "internalType": "string[]",
          "name": "",
          "type": "string[]"
        }
      ],
      "stateMutability": "view",
      "type": "function"
    },
    {
      "inputs": [
        {
          "internalType": "address",
          "name": "account",
          "type": "address"
        }
      ],
      "name": "getRedeemedItems",
      "outputs": [
        {
          "internalType": "string[]",
          "name": "",
          "type": "string[]"
        }
      ],
      "stateMutability": "view",
      "type": "function"
    },
    {
      "inputs": [],
      "name": "getTokenHolders",
      "outputs": [
        {
          "internalType": "address[]",
          "name": "",
          "type": "address[]"
        }
      ],
      "stateMutability": "view",
      "type": "function"
    },
    {
      "inputs": [
        {
          "internalType": "address",
          "name": "spender",
          "type": "address"
        },
        {
          "internalType": "uint256",
          "name": "addedValue",
          "type": "uint256"
        }
      ],
      "name": "increaseAllowance",
      "outputs": [
        {
          "internalType": "bool",
          "name": "",
          "type": "bool"
        }
      ],
      "stateMutability": "nonpayable",
      "type": "function"
    },
    {
      "inputs": [
        {
          "internalType": "address",
          "name": "to",
          "type": "address"
        },
        {
          "internalType": "uint256",
          "name": "amount",
          "type": "uint256"
        }
      ],
      "name": "mint",
      "outputs": [],
      "stateMutability": "nonpayable",
      "type": "function"
    },
    {
      "inputs": [],
      "name": "name",
      "outputs": [
        {
          "internalType": "string",
          "name": "",
          "type": "string"
        }
      ],
      "stateMutability": "view",
      "type": "function"
    },
    {
      "inputs": [],
      "name": "owner",
      "outputs": [
        {
          "internalType": "address",
          "name": "",
          "type": "address"
        }
      ],
      "stateMutability": "view",
      "type": "function"
    },
    {
      "inputs": [
        {
          "internalType": "uint256",
          "name": "action",
          "type": "uint256"
        }
      ],
      "name": "redeem",
      "outputs": [],
      "stateMutability": "nonpayable",
      "type": "function"
    },
    {
      "inputs": [
        {
          "internalType": "uint256",
          "name": "",
          "type": "uint256"
        }
      ],
      "name": "redeemableItems",
      "outputs": [
        {
          "internalType": "string",
          "name": "",
          "type": "string"
        }
      ],
      "stateMutability": "view",
      "type": "function"
    },
    {
      "inputs": [],
      "name": "renounceOwnership",
      "outputs": [],
      "stateMutability": "nonpayable",
      "type": "function"
    },
    {
      "inputs": [
        {
          "internalType": "address",
          "name": "receiver",
          "type": "address"
        },
        {
          "internalType": "uint256",
          "name": "amount",
          "type": "uint256"
        }
      ],
      "name": "rewardPlayer",
      "outputs": [],
      "stateMutability": "nonpayable",
      "type": "function"
    },
    {
      "inputs": [],
      "name": "symbol",
      "outputs": [
        {
          "internalType": "string",
          "name": "",
          "type": "string"
        }
      ],
      "stateMutability": "view",
      "type": "function"
    },
    {
      "inputs": [],
      "name": "totalSupply",
      "outputs": [
        {
          "internalType": "uint256",
          "name": "",
          "type": "uint256"
        }
      ],
      "stateMutability": "view",
      "type": "function"
    },
    {
      "inputs": [
        {
          "internalType": "address",
          "name": "recipient",
          "type": "address"
        },
        {
          "internalType": "uint256",
          "name": "amount",
          "type": "uint256"
        }
      ],
      "name": "transfer",
      "outputs": [
        {
          "internalType": "bool",
          "name": "",
          "type": "bool"
        }
      ],
      "stateMutability": "nonpayable",
      "type": "function"
    },
    {
      "inputs": [
        {
          "internalType": "address",
          "name": "from",
          "type": "address"
        },
        {
          "internalType": "address",
          "name": "to",
          "type": "address"
        },
        {
          "internalType": "uint256",
          "name": "amount",
          "type": "uint256"
        }
      ],
      "name": "transferFrom",
      "outputs": [
        {
          "internalType": "bool",
          "name": "",
          "type": "bool"
        }
      ],
      "stateMutability": "nonpayable",
      "type": "function"
    },
    {
      "inputs": [
        {
          "internalType": "address",
          "name": "newOwner",
          "type": "address"
        }
      ],
      "name": "transferOwnership",
      "outputs": [],
      "stateMutability": "nonpayable",
      "type": "function"
    }
  ],
  "bytecode": "0x60806040523480156200001157600080fd5b506040518060400160405280600581526020017f446567656e0000000000000000000000000000000000000000000000000000008152506040518060400160405280600381526020017f44474e000000000000000000000000000000000000000000000000000000000081525081600390816200008f91906200059a565b508060049081620000a191906200059a565b505050620000c4620000b86200025260201b60201c565b6200025a60201b60201c565b600880600181540180825580915050600190039060005260206000200160006040518060600160405280602b81526020016200304c602b9139909190915090816200011091906200059a565b50600880600181540180825580915050600190039060005260206000200160006040518060400160405280600f81526020017f53696c766572204c6f6f7420426f780000000000000000000000000000000000815250909190915090816200017991906200059a565b50600880600181540180825580915050600190039060005260206000200160006040518060400160405280600d81526020017f476f6c64204c6f6f7420426f780000000000000000000000000000000000000081525090919091509081620001e291906200059a565b50600880600181540180825580915050600190039060005260206000200160006040518060400160405280601181526020017f506c6174696e756d204c6f6f7420426f78000000000000000000000000000000815250909190915090816200024b91906200059a565b5062000681565b600033905090565b6000600560009054906101000a900473ffffffffffffffffffffffffffffffffffffffff16905081600560006101000a81548173ffffffffffffffffffffffffffffffffffffffff021916908373ffffffffffffffffffffffffffffffffffffffff1602179055508173ffffffffffffffffffffffffffffffffffffffff168173ffffffffffffffffffffffffffffffffffffffff167f8be0079c531659141344cd1fd0a4f28419497f9722a3daafe3b4186f6b6457e060405160405180910390a35050565b600081519050919050565b7f4e487b7100000000000000000000000000000000000000000000000000000000600052604160045260246000fd5b7f4e487b7100000000000000000000000000000000000000000000000000000000600052602260045260246000fd5b60006002820490506001821680620003a257607f821691505b602082108103620003b857620003b76200035a565b5b50919050565b60008190508160005260206000209050919050565b60006020601f8301049050919050565b600082821b905092915050565b600060088302620004227fffffffffffffffffffffffffffffffffffffffffffffffffffffffffffffffff82620003e3565b6200042e8683620003e3565b95508019841693508086168417925050509392505050565b6000819050919050565b6000819050919050565b60006200047b620004756200046f8462000446565b62000450565b62000446565b9050919050565b6000819050919050565b62000497836200045a565b620004af620004a68262000482565b848454620003f0565b825550505050565b600090565b620004c6620004b7565b620004d38184846200048c565b505050565b5b81811015620004fb57620004ef600082620004bc565b600181019050620004d9565b5050565b601f8211156200054a576200051481620003be565b6200051f84620003d3565b810160208510156200052f578190505b620005476200053e85620003d3565b830182620004d8565b50505b505050565b600082821c905092915050565b60006200056f600019846008026200054f565b1980831691505092915050565b60006200058a83836200055c565b9150826002028217905092915050565b620005a58262000320565b67ffffffffffffffff811115620005c157620005c06200032b565b5b620005cd825462000389565b620005da828285620004ff565b600060209050601f831160018114620006125760008415620005fd578287015190505b6200060985826200057c565b86555062000679565b601f1984166200062286620003be565b60005b828110156200064c5784890151825560018201915060208501945060208101905062000625565b868310156200066c578489015162000668601f8916826200055c565b8355505b6001600288020188555050505b505050505050565b6129bb80620006916000396000f3fe608060405234801561001057600080fd5b506004361061014d5760003560e01c806370a08231116100c3578063a457c2d71161007c578063a457c2d7146103a2578063a9059cbb146103d2578063db006a7514610402578063dd62ed3e1461041e578063f2fde38b1461044e578063f8f4b5741461046a5761014d565b806370a08231146102de578063715018a61461030e5780638010e53414610318578063876b1566146103485780638da5cb5b1461036657806395d89b41146103845761014d565b8063313ce56711610115578063313ce5671461020c57806335f6ebc11461022a578063395093511461024657806340c10f191461027657806342966c68146102925780635f515226146102ae5761014d565b806306fdde0314610152578063095ea7b31461017057806313bc8510146101a057806318160ddd146101be57806323b872dd146101dc575b600080fd5b61015a61049a565b60405161016791906118f8565b60405180910390f35b61018a600480360381019061018591906119b3565b61052c565b6040516101979190611a0e565b60405180910390f35b6101a861054f565b6040516101b59190611b35565b60405180910390f35b6101c6610628565b6040516101d39190611b66565b60405180910390f35b6101f660048036038101906101f19190611b81565b610632565b6040516102039190611a0e565b60405180910390f35b610214610661565b6040516102219190611bf0565b60405180910390f35b610244600480360381019061023f91906119b3565b610666565b005b610260600480360381019061025b91906119b3565b610675565b60405161026d9190611a0e565b60405180910390f35b610290600480360381019061028b91906119b3565b6106ac565b005b6102ac60048036038101906102a79190611c0b565b6106c2565b005b6102c860048036038101906102c39190611c38565b6106cf565b6040516102d59190611b66565b60405180910390f35b6102f860048036038101906102f39190611c38565b6106e1565b6040516103059190611b66565b60405180910390f35b610316610729565b005b610332600480360381019061032d9190611c0b565b61073d565b60405161033f91906118f8565b60405180910390f35b6103506107e9565b60405161035d9190611d23565b60405180910390f35b61036e610877565b60405161037b9190611d54565b60405180910390f35b61038c6108a1565b60405161039991906118f8565b60405180910390f35b6103bc60048036038101906103b791906119b3565b610933565b6040516103c99190611a0e565b60405180910390f35b6103ec60048036038101906103e791906119b3565b6109aa565b6040516103f99190611a0e565b60405180910390f35b61041c60048036038101906104179190611c0b565b6109c3565b005b61043860048036038101906104339190611d6f565b610cdf565b6040516104459190611b66565b60405180910390f35b61046860048036038101906104639190611c38565b610d66565b005b610484600480360381019061047f9190611c38565b610de9565b6040516104919190611b35565b60405180910390f35b6060600380546104a990611dde565b80601f01602080910402602001604051908101604052809291908181526020018280546104d590611dde565b80156105225780601f106104f757610100808354040283529160200191610522565b820191906000526020600020905b81548152906001019060200180831161050557829003601f168201915b5050505050905090565b600080610537610f01565b9050610544818585610f09565b600191505092915050565b60606008805480602002602001604051908101604052809291908181526020016000905b8282101561061f57838290600052602060002001805461059290611dde565b80601f01602080910402602001604051908101604052809291908181526020018280546105be90611dde565b801561060b5780601f106105e05761010080835404028352916020019161060b565b820191906000526020600020905b8154815290600101906020018083116105ee57829003601f168201915b505050505081526020019060010190610573565b50505050905090565b6000600254905090565b60008061063d610f01565b905061064a8582856110d2565b61065585858561115e565b60019150509392505050565b600090565b61067082826109aa565b505050565b600080610680610f01565b90506106a18185856106928589610cdf565b61069c9190611e3e565b610f09565b600191505092915050565b6106b46113d4565b6106be8282611452565b5050565b6106cc33826115a8565b50565b60006106da826106e1565b9050919050565b60008060008373ffffffffffffffffffffffffffffffffffffffff1673ffffffffffffffffffffffffffffffffffffffff168152602001908152602001600020549050919050565b6107316113d4565b61073b6000611775565b565b6008818154811061074d57600080fd5b90600052602060002001600091509050805461076890611dde565b80601f016020809104026020016040519081016040528092919081815260200182805461079490611dde565b80156107e15780601f106107b6576101008083540402835291602001916107e1565b820191906000526020600020905b8154815290600101906020018083116107c457829003601f168201915b505050505081565b6060600680548060200260200160405190810160405280929190818152602001828054801561086d57602002820191906000526020600020905b8160009054906101000a900473ffffffffffffffffffffffffffffffffffffffff1673ffffffffffffffffffffffffffffffffffffffff1681526020019060010190808311610823575b5050505050905090565b6000600560009054906101000a900473ffffffffffffffffffffffffffffffffffffffff16905090565b6060600480546108b090611dde565b80601f01602080910402602001604051908101604052809291908181526020018280546108dc90611dde565b80156109295780601f106108fe57610100808354040283529160200191610929565b820191906000526020600020905b81548152906001019060200180831161090c57829003601f168201915b5050505050905090565b60008061093e610f01565b9050600061094c8286610cdf565b905083811015610991576040517f08c379a000000000000000000000000000000000000000000000000000000000815260040161098890611ee4565b60405180910390fd5b61099e8286868403610f09565b60019250505092915050565b6000806109b7848461183b565b90508091505092915050565b60018103610ab75760146109d6336106e1565b1015610a17576040517f08c379a0000000000000000000000000000000000000000000000000000000008152600401610a0e90611f76565b60405180910390fd5b610a223360146115a8565b600760003373ffffffffffffffffffffffffffffffffffffffff1673ffffffffffffffffffffffffffffffffffffffff1681526020019081526020016000206008600181548110610a7657610a75611f96565b5b90600052602060002001908060018154018082558091505060019003906000526020600020016000909190919091509081610ab191906121cb565b50610cdc565b60028103610bab576032610aca336106e1565b1015610b0b576040517f08c379a0000000000000000000000000000000000000000000000000000000008152600401610b0290612325565b60405180910390fd5b610b163360326115a8565b600760003373ffffffffffffffffffffffffffffffffffffffff1673ffffffffffffffffffffffffffffffffffffffff1681526020019081526020016000206008600281548110610b6a57610b69611f96565b5b90600052602060002001908060018154018082558091505060019003906000526020600020016000909190919091509081610ba591906121cb565b50610cdb565b60038103610c9f576064610bbe336106e1565b1015610bff576040517f08c379a0000000000000000000000000000000000000000000000000000000008152600401610bf690612325565b60405180910390fd5b610c0a3360646115a8565b600760003373ffffffffffffffffffffffffffffffffffffffff1673ffffffffffffffffffffffffffffffffffffffff1681526020019081526020016000206008600381548110610c5e57610c5d611f96565b5b90600052602060002001908060018154018082558091505060019003906000526020600020016000909190919091509081610c9991906121cb565b50610cda565b6040517f08c379a0000000000000000000000000000000000000000000000000000000008152600401610cd190612391565b60405180910390fd5b5b5b50565b6000600160008473ffffffffffffffffffffffffffffffffffffffff1673ffffffffffffffffffffffffffffffffffffffff16815260200190815260200160002060008373ffffffffffffffffffffffffffffffffffffffff1673ffffffffffffffffffffffffffffffffffffffff16815260200190815260200160002054905092915050565b610d6e6113d4565b600073ffffffffffffffffffffffffffffffffffffffff168173ffffffffffffffffffffffffffffffffffffffff1603610ddd576040517f08c379a0000000000000000000000000000000000000000000000000000000008152600401610dd490612423565b60405180910390fd5b610de681611775565b50565b6060600760008373ffffffffffffffffffffffffffffffffffffffff1673ffffffffffffffffffffffffffffffffffffffff168152602001908152602001600020805480602002602001604051908101604052809291908181526020016000905b82821015610ef6578382906000526020600020018054610e6990611dde565b80601f0160208091040260200160405190810160405280929190818152602001828054610e9590611dde565b8015610ee25780601f10610eb757610100808354040283529160200191610ee2565b820191906000526020600020905b815481529060010190602001808311610ec557829003601f168201915b505050505081526020019060010190610e4a565b505050509050919050565b600033905090565b600073ffffffffffffffffffffffffffffffffffffffff168373ffffffffffffffffffffffffffffffffffffffff1603610f78576040517f08c379a0000000000000000000000000000000000000000000000000000000008152600401610f6f906124b5565b60405180910390fd5b600073ffffffffffffffffffffffffffffffffffffffff168273ffffffffffffffffffffffffffffffffffffffff1603610fe7576040517f08c379a0000000000000000000000000000000000000000000000000000000008152600401610fde90612547565b60405180910390fd5b80600160008573ffffffffffffffffffffffffffffffffffffffff1673ffffffffffffffffffffffffffffffffffffffff16815260200190815260200160002060008473ffffffffffffffffffffffffffffffffffffffff1673ffffffffffffffffffffffffffffffffffffffff168152602001908152602001600020819055508173ffffffffffffffffffffffffffffffffffffffff168373ffffffffffffffffffffffffffffffffffffffff167f8c5be1e5ebec7d5bd14f71427d1e84f3dd0314c0f7b2291e5b200ac8c7c3b925836040516110c59190611b66565b60405180910390a3505050565b60006110de8484610cdf565b90507fffffffffffffffffffffffffffffffffffffffffffffffffffffffffffffffff8114611158578181101561114a576040517f08c379a0000000000000000000000000000000000000000000000000000000008152600401611141906125b3565b60405180910390fd5b6111578484848403610f09565b5b50505050565b600073ffffffffffffffffffffffffffffffffffffffff168373ffffffffffffffffffffffffffffffffffffffff16036111cd576040517f08c379a00000000000000000000000000000000000000000000000000000000081526004016111c490612645565b60405180910390fd5b600073ffffffffffffffffffffffffffffffffffffffff168273ffffffffffffffffffffffffffffffffffffffff160361123c576040517f08c379a0000000000000000000000000000000000000000000000000000000008152600401611233906126d7565b60405180910390fd5b61124783838361185e565b60008060008573ffffffffffffffffffffffffffffffffffffffff1673ffffffffffffffffffffffffffffffffffffffff168152602001908152602001600020549050818110156112cd576040517f08c379a00000000000000000000000000000000000000000000000000000000081526004016112c490612769565b60405180910390fd5b8181036000808673ffffffffffffffffffffffffffffffffffffffff1673ffffffffffffffffffffffffffffffffffffffff16815260200190815260200160002081905550816000808573ffffffffffffffffffffffffffffffffffffffff1673ffffffffffffffffffffffffffffffffffffffff168152602001908152602001600020600082825401925050819055508273ffffffffffffffffffffffffffffffffffffffff168473ffffffffffffffffffffffffffffffffffffffff167fddf252ad1be2c89b69c2b068fc378daa952ba7f163c4a11628f55a4df523b3ef846040516113bb9190611b66565b60405180910390a36113ce848484611863565b50505050565b6113dc610f01565b73ffffffffffffffffffffffffffffffffffffffff166113fa610877565b73ffffffffffffffffffffffffffffffffffffffff1614611450576040517f08c379a0000000000000000000000000000000000000000000000000000000008152600401611447906127d5565b60405180910390fd5b565b600073ffffffffffffffffffffffffffffffffffffffff168273ffffffffffffffffffffffffffffffffffffffff16036114c1576040517f08c379a00000000000000000000000000000000000000000000000000000000081526004016114b890612841565b60405180910390fd5b6114cd6000838361185e565b80600260008282546114df9190611e3e565b92505081905550806000808473ffffffffffffffffffffffffffffffffffffffff1673ffffffffffffffffffffffffffffffffffffffff168152602001908152602001600020600082825401925050819055508173ffffffffffffffffffffffffffffffffffffffff16600073ffffffffffffffffffffffffffffffffffffffff167fddf252ad1be2c89b69c2b068fc378daa952ba7f163c4a11628f55a4df523b3ef836040516115909190611b66565b60405180910390a36115a460008383611863565b5050565b600073ffffffffffffffffffffffffffffffffffffffff168273ffffffffffffffffffffffffffffffffffffffff1603611617576040517f08c379a000000000000000000000000000000000000000000000000000000000815260040161160e906128d3565b60405180910390fd5b6116238260008361185e565b60008060008473ffffffffffffffffffffffffffffffffffffffff1673ffffffffffffffffffffffffffffffffffffffff168152602001908152602001600020549050818110156116a9576040517f08c379a00000000000000000000000000000000000000000000000000000000081526004016116a090612965565b60405180910390fd5b8181036000808573ffffffffffffffffffffffffffffffffffffffff1673ffffffffffffffffffffffffffffffffffffffff1681526020019081526020016000208190555081600260008282540392505081905550600073ffffffffffffffffffffffffffffffffffffffff168373ffffffffffffffffffffffffffffffffffffffff167fddf252ad1be2c89b69c2b068fc378daa952ba7f163c4a11628f55a4df523b3ef8460405161175c9190611b66565b60405180910390a361177083600084611863565b505050565b6000600560009054906101000a900473ffffffffffffffffffffffffffffffffffffffff16905081600560006101000a81548173ffffffffffffffffffffffffffffffffffffffff021916908373ffffffffffffffffffffffffffffffffffffffff1602179055508173ffffffffffffffffffffffffffffffffffffffff168173ffffffffffffffffffffffffffffffffffffffff167f8be0079c531659141344cd1fd0a4f28419497f9722a3daafe3b4186f6b6457e060405160405180910390a35050565b600080611846610f01565b905061185381858561115e565b600191505092915050565b505050565b505050565b600081519050919050565b600082825260208201905092915050565b60005b838110156118a2578082015181840152602081019050611887565b60008484015250505050565b6000601f19601f8301169050919050565b60006118ca82611868565b6118d48185611873565b93506118e4818560208601611884565b6118ed816118ae565b840191505092915050565b6000602082019050818103600083015261191281846118bf565b905092915050565b600080fd5b600073ffffffffffffffffffffffffffffffffffffffff82169050919050565b600061194a8261191f565b9050919050565b61195a8161193f565b811461196557600080fd5b50565b60008135905061197781611951565b92915050565b6000819050919050565b6119908161197d565b811461199b57600080fd5b50565b6000813590506119ad81611987565b92915050565b600080604083850312156119ca576119c961191a565b5b60006119d885828601611968565b92505060206119e98582860161199e565b9150509250929050565b60008115159050919050565b611a08816119f3565b82525050565b6000602082019050611a2360008301846119ff565b92915050565b600081519050919050565b600082825260208201905092915050565b6000819050602082019050919050565b600082825260208201905092915050565b6000611a7182611868565b611a7b8185611a55565b9350611a8b818560208601611884565b611a94816118ae565b840191505092915050565b6000611aab8383611a66565b905092915050565b6000602082019050919050565b6000611acb82611a29565b611ad58185611a34565b935083602082028501611ae785611a45565b8060005b85811015611b235784840389528151611b048582611a9f565b9450611b0f83611ab3565b925060208a01995050600181019050611aeb565b50829750879550505050505092915050565b60006020820190508181036000830152611b4f8184611ac0565b905092915050565b611b608161197d565b82525050565b6000602082019050611b7b6000830184611b57565b92915050565b600080600060608486031215611b9a57611b9961191a565b5b6000611ba886828701611968565b9350506020611bb986828701611968565b9250506040611bca8682870161199e565b9150509250925092565b600060ff82169050919050565b611bea81611bd4565b82525050565b6000602082019050611c056000830184611be1565b92915050565b600060208284031215611c2157611c2061191a565b5b6000611c2f8482850161199e565b91505092915050565b600060208284031215611c4e57611c4d61191a565b5b6000611c5c84828501611968565b91505092915050565b600081519050919050565b600082825260208201905092915050565b6000819050602082019050919050565b611c9a8161193f565b82525050565b6000611cac8383611c91565b60208301905092915050565b6000602082019050919050565b6000611cd082611c65565b611cda8185611c70565b9350611ce583611c81565b8060005b83811015611d16578151611cfd8882611ca0565b9750611d0883611cb8565b925050600181019050611ce9565b5085935050505092915050565b60006020820190508181036000830152611d3d8184611cc5565b905092915050565b611d4e8161193f565b82525050565b6000602082019050611d696000830184611d45565b92915050565b60008060408385031215611d8657611d8561191a565b5b6000611d9485828601611968565b9250506020611da585828601611968565b9150509250929050565b7f4e487b7100000000000000000000000000000000000000000000000000000000600052602260045260246000fd5b60006002820490506001821680611df657607f821691505b602082108103611e0957611e08611daf565b5b50919050565b7f4e487b7100000000000000000000000000000000000000000000000000000000600052601160045260246000fd5b6000611e498261197d565b9150611e548361197d565b9250828201905080821115611e6c57611e6b611e0f565b5b92915050565b7f45524332303a2064656372656173656420616c6c6f77616e63652062656c6f7760008201527f207a65726f000000000000000000000000000000000000000000000000000000602082015250565b6000611ece602583611873565b9150611ed982611e72565b604082019050919050565b60006020820190508181036000830152611efd81611ec1565b9050919050565b7f496e73756666696369656e742062616c616e636520746f2072656465656d205360008201527f616b757261000000000000000000000000000000000000000000000000000000602082015250565b6000611f60602583611873565b9150611f6b82611f04565b604082019050919050565b60006020820190508181036000830152611f8f81611f53565b9050919050565b7f4e487b7100000000000000000000000000000000000000000000000000000000600052603260045260246000fd5b600081549050611fd481611dde565b9050919050565b7f4e487b7100000000000000000000000000000000000000000000000000000000600052604160045260246000fd5b60008190508160005260206000209050919050565b60008190508160005260206000209050919050565b60006020601f8301049050919050565b600082821b905092915050565b6000600883026120817fffffffffffffffffffffffffffffffffffffffffffffffffffffffffffffffff82612044565b61208b8683612044565b95508019841693508086168417925050509392505050565b6000819050919050565b60006120c86120c36120be8461197d565b6120a3565b61197d565b9050919050565b6000819050919050565b6120e2836120ad565b6120f66120ee826120cf565b848454612051565b825550505050565b600090565b61210b6120fe565b6121168184846120d9565b505050565b5b8181101561213a5761212f600082612103565b60018101905061211c565b5050565b601f82111561217f576121508161200a565b61215984612034565b81016020851015612168578190505b61217c61217485612034565b83018261211b565b50505b505050565b600082821c905092915050565b60006121a260001984600802612184565b1980831691505092915050565b60006121bb8383612191565b9150826002028217905092915050565b8181036121d95750506122b1565b6121e282611fc5565b67ffffffffffffffff8111156121fb576121fa611fdb565b5b6122058254611dde565b61221082828561213e565b6000601f83116001811461223f576000841561222d578287015490505b61223785826121af565b8655506122aa565b601f19841661224d8761201f565b96506122588661200a565b60005b828110156122805784890154825560018201915060018501945060208101905061225b565b8683101561229d5784890154612299601f891682612191565b8355505b6001600288020188555050505b5050505050505b565b7f496e73756666696369656e742062616c616e636520746f2072656465656d204860008201527f696e617461000000000000000000000000000000000000000000000000000000602082015250565b600061230f602583611873565b915061231a826122b3565b604082019050919050565b6000602082019050818103600083015261233e81612302565b9050919050565b7f496e76616c696420616374696f6e000000000000000000000000000000000000600082015250565b600061237b600e83611873565b915061238682612345565b602082019050919050565b600060208201905081810360008301526123aa8161236e565b9050919050565b7f4f776e61626c653a206e6577206f776e657220697320746865207a65726f206160008201527f6464726573730000000000000000000000000000000000000000000000000000602082015250565b600061240d602683611873565b9150612418826123b1565b604082019050919050565b6000602082019050818103600083015261243c81612400565b9050919050565b7f45524332303a20617070726f76652066726f6d20746865207a65726f2061646460008201527f7265737300000000000000000000000000000000000000000000000000000000602082015250565b600061249f602483611873565b91506124aa82612443565b604082019050919050565b600060208201905081810360008301526124ce81612492565b9050919050565b7f45524332303a20617070726f766520746f20746865207a65726f20616464726560008201527f7373000000000000000000000000000000000000000000000000000000000000602082015250565b6000612531602283611873565b915061253c826124d5565b604082019050919050565b6000602082019050818103600083015261256081612524565b9050919050565b7f45524332303a20696e73756666696369656e7420616c6c6f77616e6365000000600082015250565b600061259d601d83611873565b91506125a882612567565b602082019050919050565b600060208201905081810360008301526125cc81612590565b9050919050565b7f45524332303a207472616e736665722066726f6d20746865207a65726f20616460008201527f6472657373000000000000000000000000000000000000000000000000000000602082015250565b600061262f602583611873565b915061263a826125d3565b604082019050919050565b6000602082019050818103600083015261265e81612622565b9050919050565b7f45524332303a207472616e7366657220746f20746865207a65726f206164647260008201527f6573730000000000000000000000000000000000000000000000000000000000602082015250565b60006126c1602383611873565b91506126cc82612665565b604082019050919050565b600060208201905081810360008301526126f0816126b4565b9050919050565b7f45524332303a207472616e7366657220616d6f756e742065786365656473206260008201527f616c616e63650000000000000000000000000000000000000000000000000000602082015250565b6000612753602683611873565b915061275e826126f7565b604082019050919050565b6000602082019050818103600083015261278281612746565b9050919050565b7f4f776e61626c653a2063616c6c6572206973206e6f7420746865206f776e6572600082015250565b60006127bf602083611873565b91506127ca82612789565b602082019050919050565b600060208201905081810360008301526127ee816127b2565b9050919050565b7f45524332303a206d696e7420746f20746865207a65726f206164647265737300600082015250565b600061282b601f83611873565b9150612836826127f5565b602082019050919050565b6000602082019050818103600083015261285a8161281e565b9050919050565b7f45524332303a206275726e2066726f6d20746865207a65726f2061646472657360008201527f7300000000000000000000000000000000000000000000000000000000000000602082015250565b60006128bd602183611873565b91506128c882612861565b604082019050919050565b600060208201905081810360008301526128ec816128b0565b9050919050565b7f45524332303a206275726e20616d6f756e7420657863656564732062616c616e60008201527f6365000000000000000000000000000000000000000000000000000000000000602082015250565b600061294f602283611873565b915061295a826128f3565b604082019050919050565b6000602082019050818103600083015261297e81612942565b905091905056fea2646970667358221220953f5e08297246ea510d015bc6f7037c609022ceab5cb856d6d893700921963b64736f6c6343000814003343686f6f7365204e756d62657220726573706563746976656c79207374617274696e6720666f726d203120",
  "linkReferences": {},
  "deployedLinkReferences": {}
}